{
  "_format": "hh-sol-artifact-1",
  "contractName": "L1Token",
  "sourceName": "contracts/L1Token.sol",
  "abi": [
    {
      "inputs": [
        {
          "internalType": "address",
          "name": "_bridge",
          "type": "address"
        },
        {
          "internalType": "address",
          "name": "_router",
          "type": "address"
        }
      ],
      "stateMutability": "nonpayable",
      "type": "constructor"
    },
    {
      "anonymous": false,
      "inputs": [
        {
          "indexed": true,
          "internalType": "address",
          "name": "owner",
          "type": "address"
        },
        {
          "indexed": true,
          "internalType": "address",
          "name": "spender",
          "type": "address"
        },
        {
          "indexed": false,
          "internalType": "uint256",
          "name": "value",
          "type": "uint256"
        }
      ],
      "name": "Approval",
      "type": "event"
    },
    {
      "anonymous": false,
      "inputs": [
        {
          "indexed": true,
          "internalType": "address",
          "name": "previousOwner",
          "type": "address"
        },
        {
          "indexed": true,
          "internalType": "address",
          "name": "newOwner",
          "type": "address"
        }
      ],
      "name": "OwnershipTransferred",
      "type": "event"
    },
    {
      "anonymous": false,
      "inputs": [
        {
          "indexed": true,
          "internalType": "address",
          "name": "from",
          "type": "address"
        },
        {
          "indexed": true,
          "internalType": "address",
          "name": "to",
          "type": "address"
        },
        {
          "indexed": false,
          "internalType": "uint256",
          "name": "value",
          "type": "uint256"
        }
      ],
      "name": "Transfer",
      "type": "event"
    },
    {
      "inputs": [
        {
          "internalType": "address",
          "name": "owner",
          "type": "address"
        },
        {
          "internalType": "address",
          "name": "spender",
          "type": "address"
        }
      ],
      "name": "allowance",
      "outputs": [
        {
          "internalType": "uint256",
          "name": "",
          "type": "uint256"
        }
      ],
      "stateMutability": "view",
      "type": "function"
    },
    {
      "inputs": [
        {
          "internalType": "address",
          "name": "spender",
          "type": "address"
        },
        {
          "internalType": "uint256",
          "name": "amount",
          "type": "uint256"
        }
      ],
      "name": "approve",
      "outputs": [
        {
          "internalType": "bool",
          "name": "",
          "type": "bool"
        }
      ],
      "stateMutability": "nonpayable",
      "type": "function"
    },
    {
      "inputs": [
        {
          "internalType": "address",
          "name": "a",
          "type": "address"
        }
      ],
      "name": "authorize",
      "outputs": [],
      "stateMutability": "nonpayable",
      "type": "function"
    },
    {
      "inputs": [
        {
          "internalType": "address",
          "name": "account",
          "type": "address"
        }
      ],
      "name": "balanceOf",
      "outputs": [
        {
          "internalType": "uint256",
          "name": "",
          "type": "uint256"
        }
      ],
      "stateMutability": "view",
      "type": "function"
    },
    {
      "inputs": [],
      "name": "bridge",
      "outputs": [
        {
          "internalType": "address",
          "name": "",
          "type": "address"
        }
      ],
      "stateMutability": "view",
      "type": "function"
    },
    {
      "inputs": [],
      "name": "cap",
      "outputs": [
        {
          "internalType": "uint256",
          "name": "",
          "type": "uint256"
        }
      ],
      "stateMutability": "view",
      "type": "function"
    },
    {
      "inputs": [],
      "name": "decimals",
      "outputs": [
        {
          "internalType": "uint8",
          "name": "",
          "type": "uint8"
        }
      ],
      "stateMutability": "view",
      "type": "function"
    },
    {
      "inputs": [
        {
          "internalType": "address",
          "name": "spender",
          "type": "address"
        },
        {
          "internalType": "uint256",
          "name": "subtractedValue",
          "type": "uint256"
        }
      ],
      "name": "decreaseAllowance",
      "outputs": [
        {
          "internalType": "bool",
          "name": "",
          "type": "bool"
        }
      ],
      "stateMutability": "nonpayable",
      "type": "function"
    },
    {
      "inputs": [],
      "name": "getChainId",
      "outputs": [
        {
          "internalType": "uint256",
          "name": "chainId",
          "type": "uint256"
        }
      ],
      "stateMutability": "nonpayable",
      "type": "function"
    },
    {
      "inputs": [
        {
          "internalType": "address",
          "name": "spender",
          "type": "address"
        },
        {
          "internalType": "uint256",
          "name": "addedValue",
          "type": "uint256"
        }
      ],
      "name": "increaseAllowance",
      "outputs": [
        {
          "internalType": "bool",
          "name": "",
          "type": "bool"
        }
      ],
      "stateMutability": "nonpayable",
      "type": "function"
    },
    {
      "inputs": [],
      "name": "isArbitrumEnabled",
      "outputs": [
        {
          "internalType": "uint8",
          "name": "",
          "type": "uint8"
        }
      ],
      "stateMutability": "view",
      "type": "function"
    },
    {
      "inputs": [
        {
          "internalType": "address",
          "name": "a",
          "type": "address"
        }
      ],
      "name": "isAuthorized",
      "outputs": [
        {
          "internalType": "bool",
          "name": "",
          "type": "bool"
        }
      ],
      "stateMutability": "view",
      "type": "function"
    },
    {
      "inputs": [],
      "name": "l1StakingAddress",
      "outputs": [
        {
          "internalType": "address",
          "name": "",
          "type": "address"
        }
      ],
      "stateMutability": "view",
      "type": "function"
    },
    {
      "inputs": [
        {
          "internalType": "address",
          "name": "account",
          "type": "address"
        },
        {
          "internalType": "uint256",
          "name": "amount",
          "type": "uint256"
        }
      ],
      "name": "mint",
      "outputs": [],
      "stateMutability": "nonpayable",
      "type": "function"
    },
    {
      "inputs": [],
      "name": "name",
      "outputs": [
        {
          "internalType": "string",
          "name": "",
          "type": "string"
        }
      ],
      "stateMutability": "view",
      "type": "function"
    },
    {
      "inputs": [],
      "name": "owner",
      "outputs": [
        {
          "internalType": "address",
          "name": "",
          "type": "address"
        }
      ],
      "stateMutability": "view",
      "type": "function"
    },
    {
      "inputs": [
        {
          "internalType": "address",
          "name": "l2CustomTokenAddress",
          "type": "address"
        },
        {
          "internalType": "uint256",
          "name": "maxSubmissionCostForCustomBridge",
          "type": "uint256"
        },
        {
          "internalType": "uint256",
          "name": "maxSubmissionCostForRouter",
          "type": "uint256"
        },
        {
          "internalType": "uint256",
          "name": "maxGasForCustomBridge",
          "type": "uint256"
        },
        {
          "internalType": "uint256",
          "name": "maxGasForRouter",
          "type": "uint256"
        },
        {
          "internalType": "uint256",
          "name": "gasPriceBid",
          "type": "uint256"
        },
        {
          "internalType": "uint256",
          "name": "valueForGateway",
          "type": "uint256"
        },
        {
          "internalType": "uint256",
          "name": "valueForRouter",
          "type": "uint256"
        },
        {
          "internalType": "address",
          "name": "creditBackAddress",
          "type": "address"
        }
      ],
      "name": "registerTokenOnL2",
      "outputs": [],
      "stateMutability": "payable",
      "type": "function"
    },
    {
      "inputs": [],
      "name": "renounceOwnership",
      "outputs": [],
      "stateMutability": "nonpayable",
      "type": "function"
    },
    {
      "inputs": [],
      "name": "router",
      "outputs": [
        {
          "internalType": "address",
          "name": "",
          "type": "address"
        }
      ],
      "stateMutability": "view",
      "type": "function"
    },
    {
      "inputs": [],
      "name": "symbol",
      "outputs": [
        {
          "internalType": "string",
          "name": "",
          "type": "string"
        }
      ],
      "stateMutability": "view",
      "type": "function"
    },
    {
      "inputs": [],
      "name": "totalSupply",
      "outputs": [
        {
          "internalType": "uint256",
          "name": "",
          "type": "uint256"
        }
      ],
      "stateMutability": "view",
      "type": "function"
    },
    {
      "inputs": [
        {
          "internalType": "address",
          "name": "recipient",
          "type": "address"
        },
        {
          "internalType": "uint256",
          "name": "amount",
          "type": "uint256"
        }
      ],
      "name": "transfer",
      "outputs": [
        {
          "internalType": "bool",
          "name": "",
          "type": "bool"
        }
      ],
      "stateMutability": "nonpayable",
      "type": "function"
    },
    {
      "inputs": [
        {
          "internalType": "address",
          "name": "sender",
          "type": "address"
        },
        {
          "internalType": "address",
          "name": "recipient",
          "type": "address"
        },
        {
          "internalType": "uint256",
          "name": "amount",
          "type": "uint256"
        }
      ],
      "name": "transferFrom",
      "outputs": [
        {
          "internalType": "bool",
          "name": "",
          "type": "bool"
        }
      ],
      "stateMutability": "nonpayable",
      "type": "function"
    },
    {
      "inputs": [
        {
          "internalType": "address",
          "name": "newOwner",
          "type": "address"
        }
      ],
      "name": "transferOwnership",
      "outputs": [],
      "stateMutability": "nonpayable",
      "type": "function"
    },
    {
      "inputs": [
        {
          "internalType": "address",
          "name": "a",
          "type": "address"
        }
      ],
      "name": "unauthorize",
      "outputs": [],
      "stateMutability": "nonpayable",
      "type": "function"
    }
  ],
  "bytecode": "0x60806040523480156200001157600080fd5b506040516200270e3803806200270e833981810160405260408110156200003757600080fd5b8101908080519060200190929190805190602001909291905050506040518060400160405280600981526020017f426f747a436f696e7300000000000000000000000000000000000000000000008152506040518060400160405280600481526020017f424f545a000000000000000000000000000000000000000000000000000000008152506000620000d06200024860201b60201c565b9050806000806101000a81548173ffffffffffffffffffffffffffffffffffffffff021916908373ffffffffffffffffffffffffffffffffffffffff1602179055508073ffffffffffffffffffffffffffffffffffffffff16600073ffffffffffffffffffffffffffffffffffffffff167f8be0079c531659141344cd1fd0a4f28419497f9722a3daafe3b4186f6b6457e060405160405180910390a35081600490805190602001906200018692919062000250565b5080600590805190602001906200019f92919062000250565b506012600660006101000a81548160ff021916908360ff160217905550505081600660016101000a81548173ffffffffffffffffffffffffffffffffffffffff021916908373ffffffffffffffffffffffffffffffffffffffff16021790555080600760006101000a81548173ffffffffffffffffffffffffffffffffffffffff021916908373ffffffffffffffffffffffffffffffffffffffff1602179055505050620002f6565b600033905090565b828054600181600116156101000203166002900490600052602060002090601f016020900481019282601f106200029357805160ff1916838001178555620002c4565b82800160010185558215620002c4579182015b82811115620002c3578251825591602001919060010190620002a6565b5b509050620002d39190620002d7565b5090565b5b80821115620002f2576000816000905550600101620002d8565b5090565b61240880620003066000396000f3fe6080604052600436106101665760003560e01c80638da5cb5b116100d1578063dd62ed3e1161008a578063f2fde38b11610064578063f2fde38b1461087e578063f887ea40146108cf578063fc792d8e14610910578063fe9fbb80146109bb57610166565b8063dd62ed3e14610767578063e78cea92146107ec578063f0b37c041461082d57610166565b80638da5cb5b146105355780638e5f5ad11461057657806395d89b41146105a4578063a457c2d714610634578063a9059cbb146106a5578063b6a5d7de1461071657610166565b8063355274ea11610123578063355274ea1461038157806339509351146103ac57806340c10f191461041d57806370a0823114610478578063715018a6146104dd5780638947d85d146104f457610166565b806306fdde031461016b578063095ea7b3146101fb57806318160ddd1461026c57806323b872dd14610297578063313ce567146103285780633408e47014610356575b600080fd5b34801561017757600080fd5b50610180610a22565b6040518080602001828103825283818151815260200191508051906020019080838360005b838110156101c05780820151818401526020810190506101a5565b50505050905090810190601f1680156101ed5780820380516001836020036101000a031916815260200191505b509250505060405180910390f35b34801561020757600080fd5b506102546004803603604081101561021e57600080fd5b81019080803573ffffffffffffffffffffffffffffffffffffffff16906020019092919080359060200190929190505050610ac4565b60405180821515815260200191505060405180910390f35b34801561027857600080fd5b50610281610ae2565b6040518082815260200191505060405180910390f35b3480156102a357600080fd5b50610310600480360360608110156102ba57600080fd5b81019080803573ffffffffffffffffffffffffffffffffffffffff169060200190929190803573ffffffffffffffffffffffffffffffffffffffff16906020019092919080359060200190929190505050610aec565b60405180821515815260200191505060405180910390f35b34801561033457600080fd5b5061033d610b02565b604051808260ff16815260200191505060405180910390f35b34801561036257600080fd5b5061036b610b19565b6040518082815260200191505060405180910390f35b34801561038d57600080fd5b50610396610b21565b6040518082815260200191505060405180910390f35b3480156103b857600080fd5b50610405600480360360408110156103cf57600080fd5b81019080803573ffffffffffffffffffffffffffffffffffffffff16906020019092919080359060200190929190505050610b33565b60405180821515815260200191505060405180910390f35b34801561042957600080fd5b506104766004803603604081101561044057600080fd5b81019080803573ffffffffffffffffffffffffffffffffffffffff16906020019092919080359060200190929190505050610be6565b005b34801561048457600080fd5b506104c76004803603602081101561049b57600080fd5b81019080803573ffffffffffffffffffffffffffffffffffffffff169060200190929190505050610e2c565b6040518082815260200191505060405180910390f35b3480156104e957600080fd5b506104f2610e3e565b005b34801561050057600080fd5b50610509610fab565b604051808273ffffffffffffffffffffffffffffffffffffffff16815260200191505060405180910390f35b34801561054157600080fd5b5061054a610fd1565b604051808273ffffffffffffffffffffffffffffffffffffffff16815260200191505060405180910390f35b34801561058257600080fd5b5061058b610ffa565b604051808260ff16815260200191505060405180910390f35b3480156105b057600080fd5b506105b9611086565b6040518080602001828103825283818151815260200191508051906020019080838360005b838110156105f95780820151818401526020810190506105de565b50505050905090810190601f1680156106265780820380516001836020036101000a031916815260200191505b509250505060405180910390f35b34801561064057600080fd5b5061068d6004803603604081101561065757600080fd5b81019080803573ffffffffffffffffffffffffffffffffffffffff16906020019092919080359060200190929190505050611128565b60405180821515815260200191505060405180910390f35b3480156106b157600080fd5b506106fe600480360360408110156106c857600080fd5b81019080803573ffffffffffffffffffffffffffffffffffffffff169060200190929190803590602001909291905050506111f5565b60405180821515815260200191505060405180910390f35b34801561072257600080fd5b506107656004803603602081101561073957600080fd5b81019080803573ffffffffffffffffffffffffffffffffffffffff169060200190929190505050611213565b005b34801561077357600080fd5b506107d66004803603604081101561078a57600080fd5b81019080803573ffffffffffffffffffffffffffffffffffffffff169060200190929190803573ffffffffffffffffffffffffffffffffffffffff16906020019092919050505061131d565b6040518082815260200191505060405180910390f35b3480156107f857600080fd5b506108016113a4565b604051808273ffffffffffffffffffffffffffffffffffffffff16815260200191505060405180910390f35b34801561083957600080fd5b5061087c6004803603602081101561085057600080fd5b81019080803573ffffffffffffffffffffffffffffffffffffffff1690602001909291905050506113ca565b005b34801561088a57600080fd5b506108cd600480360360208110156108a157600080fd5b81019080803573ffffffffffffffffffffffffffffffffffffffff1690602001909291905050506114d4565b005b3480156108db57600080fd5b506108e46116c6565b604051808273ffffffffffffffffffffffffffffffffffffffff16815260200191505060405180910390f35b6109b9600480360361012081101561092757600080fd5b81019080803573ffffffffffffffffffffffffffffffffffffffff16906020019092919080359060200190929190803590602001909291908035906020019092919080359060200190929190803590602001909291908035906020019092919080359060200190929190803573ffffffffffffffffffffffffffffffffffffffff1690602001909291905050506116ec565b005b3480156109c757600080fd5b50610a0a600480360360208110156109de57600080fd5b81019080803573ffffffffffffffffffffffffffffffffffffffff16906020019092919050505061195f565b60405180821515815260200191505060405180910390f35b606060048054600181600116156101000203166002900480601f016020809104026020016040519081016040528092919081815260200182805460018160011615610100020316600290048015610aba5780601f10610a8f57610100808354040283529160200191610aba565b820191906000526020600020905b815481529060010190602001808311610a9d57829003601f168201915b5050505050905090565b6000610ad8610ad16119b5565b84846119bd565b6001905092915050565b6000600354905090565b6000610af9848484611bb4565b90509392505050565b6000600660009054906101000a900460ff16905090565b600046905090565b6000690202fefbf2d7c2f00000905090565b6000610bdc610b406119b5565b84610bd78560026000610b516119b5565b73ffffffffffffffffffffffffffffffffffffffff1673ffffffffffffffffffffffffffffffffffffffff16815260200190815260200160002060008973ffffffffffffffffffffffffffffffffffffffff1673ffffffffffffffffffffffffffffffffffffffff16815260200190815260200160002054611c8d90919063ffffffff16565b6119bd565b6001905092915050565b33600960008273ffffffffffffffffffffffffffffffffffffffff1673ffffffffffffffffffffffffffffffffffffffff16815260200190815260200160002060009054906101000a900460ff16610ca6576040517f08c379a000000000000000000000000000000000000000000000000000000000815260040180806020018281038252600e8152602001807f6e6f7420617574686f72697a656400000000000000000000000000000000000081525060200191505060405180910390fd5b6000610cb0610ae2565b905060008311610d28576040517f08c379a000000000000000000000000000000000000000000000000000000000815260040180806020018281038252600b8152602001807f63616e74206d696e74203000000000000000000000000000000000000000000081525060200191505060405180910390fd5b690202fefbf2d7c2f000008110610da7576040517f08c379a00000000000000000000000000000000000000000000000000000000081526004018080602001828103825260138152602001807f746f74616c20737570706c79206d696e7465640000000000000000000000000081525060200191505060405180910390fd5b690202fefbf2d7c2f000008382011115610e0057600081690202fefbf2d7c2f0000003905083811115610dd657fe5b610de08582611d15565b690202fefbf2d7c2f00000610df3610ae2565b14610dfa57fe5b50610e26565b610e0a8484611d15565b690202fefbf2d7c2f00000610e1d610ae2565b1115610e2557fe5b5b50505050565b6000610e3782611ede565b9050919050565b610e466119b5565b73ffffffffffffffffffffffffffffffffffffffff16610e64610fd1565b73ffffffffffffffffffffffffffffffffffffffff1614610eed576040517f08c379a00000000000000000000000000000000000000000000000000000000081526004018080602001828103825260208152602001807f4f776e61626c653a2063616c6c6572206973206e6f7420746865206f776e657281525060200191505060405180910390fd5b600073ffffffffffffffffffffffffffffffffffffffff1660008054906101000a900473ffffffffffffffffffffffffffffffffffffffff1673ffffffffffffffffffffffffffffffffffffffff167f8be0079c531659141344cd1fd0a4f28419497f9722a3daafe3b4186f6b6457e060405160405180910390a360008060006101000a81548173ffffffffffffffffffffffffffffffffffffffff021916908373ffffffffffffffffffffffffffffffffffffffff160217905550565b600860009054906101000a900473ffffffffffffffffffffffffffffffffffffffff1681565b60008060009054906101000a900473ffffffffffffffffffffffffffffffffffffffff16905090565b6000600760149054906101000a900460ff1661107e576040517f08c379a00000000000000000000000000000000000000000000000000000000081526004018080602001828103825260118152602001807f4e4f545f45585045435445445f43414c4c00000000000000000000000000000081525060200191505060405180910390fd5b61a4b1905090565b606060058054600181600116156101000203166002900480601f01602080910402602001604051908101604052809291908181526020018280546001816001161561010002031660029004801561111e5780601f106110f35761010080835404028352916020019161111e565b820191906000526020600020905b81548152906001019060200180831161110157829003601f168201915b5050505050905090565b60006111eb6111356119b5565b846111e6856040518060600160405280602581526020016123ae602591396002600061115f6119b5565b73ffffffffffffffffffffffffffffffffffffffff1673ffffffffffffffffffffffffffffffffffffffff16815260200190815260200160002060008a73ffffffffffffffffffffffffffffffffffffffff1673ffffffffffffffffffffffffffffffffffffffff16815260200190815260200160002054611f279092919063ffffffff16565b6119bd565b6001905092915050565b60006112096112026119b5565b8484611fe1565b6001905092915050565b61121b6119b5565b73ffffffffffffffffffffffffffffffffffffffff16611239610fd1565b73ffffffffffffffffffffffffffffffffffffffff16146112c2576040517f08c379a00000000000000000000000000000000000000000000000000000000081526004018080602001828103825260208152602001807f4f776e61626c653a2063616c6c6572206973206e6f7420746865206f776e657281525060200191505060405180910390fd5b6001600960008373ffffffffffffffffffffffffffffffffffffffff1673ffffffffffffffffffffffffffffffffffffffff16815260200190815260200160002060006101000a81548160ff02191690831515021790555050565b6000600260008473ffffffffffffffffffffffffffffffffffffffff1673ffffffffffffffffffffffffffffffffffffffff16815260200190815260200160002060008373ffffffffffffffffffffffffffffffffffffffff1673ffffffffffffffffffffffffffffffffffffffff16815260200190815260200160002054905092915050565b600660019054906101000a900473ffffffffffffffffffffffffffffffffffffffff1681565b6113d26119b5565b73ffffffffffffffffffffffffffffffffffffffff166113f0610fd1565b73ffffffffffffffffffffffffffffffffffffffff1614611479576040517f08c379a00000000000000000000000000000000000000000000000000000000081526004018080602001828103825260208152602001807f4f776e61626c653a2063616c6c6572206973206e6f7420746865206f776e657281525060200191505060405180910390fd5b6000600960008373ffffffffffffffffffffffffffffffffffffffff1673ffffffffffffffffffffffffffffffffffffffff16815260200190815260200160002060006101000a81548160ff02191690831515021790555050565b6114dc6119b5565b73ffffffffffffffffffffffffffffffffffffffff166114fa610fd1565b73ffffffffffffffffffffffffffffffffffffffff1614611583576040517f08c379a00000000000000000000000000000000000000000000000000000000081526004018080602001828103825260208152602001807f4f776e61626c653a2063616c6c6572206973206e6f7420746865206f776e657281525060200191505060405180910390fd5b600073ffffffffffffffffffffffffffffffffffffffff168173ffffffffffffffffffffffffffffffffffffffff161415611609576040517f08c379a00000000000000000000000000000000000000000000000000000000081526004018080602001828103825260268152602001806122cf6026913960400191505060405180910390fd5b8073ffffffffffffffffffffffffffffffffffffffff1660008054906101000a900473ffffffffffffffffffffffffffffffffffffffff1673ffffffffffffffffffffffffffffffffffffffff167f8be0079c531659141344cd1fd0a4f28419497f9722a3daafe3b4186f6b6457e060405160405180910390a3806000806101000a81548173ffffffffffffffffffffffffffffffffffffffff021916908373ffffffffffffffffffffffffffffffffffffffff16021790555050565b600760009054906101000a900473ffffffffffffffffffffffffffffffffffffffff1681565b6000600760149054906101000a900460ff1690506001600760146101000a81548160ff021916908315150217905550600660019054906101000a900473ffffffffffffffffffffffffffffffffffffffff1673ffffffffffffffffffffffffffffffffffffffff1663ca346d4a858c8a898e886040518763ffffffff1660e01b8152600401808673ffffffffffffffffffffffffffffffffffffffff1681526020018581526020018481526020018381526020018273ffffffffffffffffffffffffffffffffffffffff168152602001955050505050506020604051808303818588803b1580156117dc57600080fd5b505af11580156117f0573d6000803e3d6000fd5b50505050506040513d602081101561180757600080fd5b810190808051906020019092919050505050600760009054906101000a900473ffffffffffffffffffffffffffffffffffffffff1673ffffffffffffffffffffffffffffffffffffffff16632d67b72d84600660019054906101000a900473ffffffffffffffffffffffffffffffffffffffff1689898d886040518763ffffffff1660e01b8152600401808673ffffffffffffffffffffffffffffffffffffffff1681526020018581526020018481526020018381526020018273ffffffffffffffffffffffffffffffffffffffff168152602001955050505050506020604051808303818588803b1580156118fc57600080fd5b505af1158015611910573d6000803e3d6000fd5b50505050506040513d602081101561192757600080fd5b81019080805190602001909291905050505080600760146101000a81548160ff02191690831515021790555050505050505050505050565b6000600960008373ffffffffffffffffffffffffffffffffffffffff1673ffffffffffffffffffffffffffffffffffffffff16815260200190815260200160002060009054906101000a900460ff169050919050565b600033905090565b600073ffffffffffffffffffffffffffffffffffffffff168373ffffffffffffffffffffffffffffffffffffffff161415611a43576040517f08c379a000000000000000000000000000000000000000000000000000000000815260040180806020018281038252602481526020018061238a6024913960400191505060405180910390fd5b600073ffffffffffffffffffffffffffffffffffffffff168273ffffffffffffffffffffffffffffffffffffffff161415611ac9576040517f08c379a00000000000000000000000000000000000000000000000000000000081526004018080602001828103825260228152602001806122f56022913960400191505060405180910390fd5b80600260008573ffffffffffffffffffffffffffffffffffffffff1673ffffffffffffffffffffffffffffffffffffffff16815260200190815260200160002060008473ffffffffffffffffffffffffffffffffffffffff1673ffffffffffffffffffffffffffffffffffffffff168152602001908152602001600020819055508173ffffffffffffffffffffffffffffffffffffffff168373ffffffffffffffffffffffffffffffffffffffff167f8c5be1e5ebec7d5bd14f71427d1e84f3dd0314c0f7b2291e5b200ac8c7c3b925836040518082815260200191505060405180910390a3505050565b6000611bc1848484611fe1565b611c8284611bcd6119b5565b611c7d8560405180606001604052806028815260200161233d60289139600260008b73ffffffffffffffffffffffffffffffffffffffff1673ffffffffffffffffffffffffffffffffffffffff1681526020019081526020016000206000611c336119b5565b73ffffffffffffffffffffffffffffffffffffffff1673ffffffffffffffffffffffffffffffffffffffff16815260200190815260200160002054611f279092919063ffffffff16565b6119bd565b600190509392505050565b600080828401905083811015611d0b576040517f08c379a000000000000000000000000000000000000000000000000000000000815260040180806020018281038252601b8152602001807f536166654d6174683a206164646974696f6e206f766572666c6f77000000000081525060200191505060405180910390fd5b8091505092915050565b600073ffffffffffffffffffffffffffffffffffffffff168273ffffffffffffffffffffffffffffffffffffffff161415611db8576040517f08c379a000000000000000000000000000000000000000000000000000000000815260040180806020018281038252601f8152602001807f45524332303a206d696e7420746f20746865207a65726f20616464726573730081525060200191505060405180910390fd5b611dc4600083836122a6565b611dd981600354611c8d90919063ffffffff16565b600381905550611e3181600160008573ffffffffffffffffffffffffffffffffffffffff1673ffffffffffffffffffffffffffffffffffffffff16815260200190815260200160002054611c8d90919063ffffffff16565b600160008473ffffffffffffffffffffffffffffffffffffffff1673ffffffffffffffffffffffffffffffffffffffff168152602001908152602001600020819055508173ffffffffffffffffffffffffffffffffffffffff16600073ffffffffffffffffffffffffffffffffffffffff167fddf252ad1be2c89b69c2b068fc378daa952ba7f163c4a11628f55a4df523b3ef836040518082815260200191505060405180910390a35050565b6000600160008373ffffffffffffffffffffffffffffffffffffffff1673ffffffffffffffffffffffffffffffffffffffff168152602001908152602001600020549050919050565b6000838311158290611fd4576040517f08c379a00000000000000000000000000000000000000000000000000000000081526004018080602001828103825283818151815260200191508051906020019080838360005b83811015611f99578082015181840152602081019050611f7e565b50505050905090810190601f168015611fc65780820380516001836020036101000a031916815260200191505b509250505060405180910390fd5b5082840390509392505050565b600073ffffffffffffffffffffffffffffffffffffffff168373ffffffffffffffffffffffffffffffffffffffff161415612067576040517f08c379a00000000000000000000000000000000000000000000000000000000081526004018080602001828103825260258152602001806123656025913960400191505060405180910390fd5b600073ffffffffffffffffffffffffffffffffffffffff168273ffffffffffffffffffffffffffffffffffffffff1614156120ed576040517f08c379a00000000000000000000000000000000000000000000000000000000081526004018080602001828103825260238152602001806122ac6023913960400191505060405180910390fd5b6120f88383836122a6565b6121648160405180606001604052806026815260200161231760269139600160008773ffffffffffffffffffffffffffffffffffffffff1673ffffffffffffffffffffffffffffffffffffffff16815260200190815260200160002054611f279092919063ffffffff16565b600160008573ffffffffffffffffffffffffffffffffffffffff1673ffffffffffffffffffffffffffffffffffffffff168152602001908152602001600020819055506121f981600160008573ffffffffffffffffffffffffffffffffffffffff1673ffffffffffffffffffffffffffffffffffffffff16815260200190815260200160002054611c8d90919063ffffffff16565b600160008473ffffffffffffffffffffffffffffffffffffffff1673ffffffffffffffffffffffffffffffffffffffff168152602001908152602001600020819055508173ffffffffffffffffffffffffffffffffffffffff168373ffffffffffffffffffffffffffffffffffffffff167fddf252ad1be2c89b69c2b068fc378daa952ba7f163c4a11628f55a4df523b3ef836040518082815260200191505060405180910390a3505050565b50505056fe45524332303a207472616e7366657220746f20746865207a65726f20616464726573734f776e61626c653a206e6577206f776e657220697320746865207a65726f206164647265737345524332303a20617070726f766520746f20746865207a65726f206164647265737345524332303a207472616e7366657220616d6f756e7420657863656564732062616c616e636545524332303a207472616e7366657220616d6f756e74206578636565647320616c6c6f77616e636545524332303a207472616e736665722066726f6d20746865207a65726f206164647265737345524332303a20617070726f76652066726f6d20746865207a65726f206164647265737345524332303a2064656372656173656420616c6c6f77616e63652062656c6f77207a65726fa264697066735822122089e9481325cf7be8f8c68bc45a6a0cdffb133f8364b606532ed71bed37c5920d64736f6c634300060c0033",
  "linkReferences": {},
  "deployedLinkReferences": {}
}